{
    "contractName": "Masterdemon",
    "abi": [
        {
            "inputs": [
                {
                    "internalType": "contract IERC20",
                    "name": "_rewardsToken",
                    "type": "address"
                }
            ],
            "stateMutability": "nonpayable",
            "type": "constructor"
        },
        {
            "anonymous": false,
            "inputs": [
                {
                    "indexed": true,
                    "internalType": "address",
                    "name": "previousOwner",
                    "type": "address"
                },
                {
                    "indexed": true,
                    "internalType": "address",
                    "name": "newOwner",
                    "type": "address"
                }
            ],
            "name": "OwnershipTransferred",
            "type": "event"
        },
        {
            "anonymous": false,
            "inputs": [
                {
                    "indexed": false,
                    "internalType": "address",
                    "name": "staker",
                    "type": "address"
                }
            ],
            "name": "UserStaked",
            "type": "event"
        },
        {
            "anonymous": false,
            "inputs": [
                {
                    "indexed": false,
                    "internalType": "address",
                    "name": "unstaker",
                    "type": "address"
                }
            ],
            "name": "UserUnstaked",
            "type": "event"
        },
        {
            "inputs": [
                {
                    "internalType": "address",
                    "name": "_newAddress",
                    "type": "address"
                }
            ],
            "name": "changeDemonzAddress",
            "outputs": [],
            "stateMutability": "nonpayable",
            "type": "function"
        },
        {
            "inputs": [
                {
                    "internalType": "uint256",
                    "name": "_staking",
                    "type": "uint256"
                }
            ],
            "name": "changeStakingFee",
            "outputs": [],
            "stateMutability": "nonpayable",
            "type": "function"
        },
        {
            "inputs": [
                {
                    "internalType": "uint256",
                    "name": "_unstaking",
                    "type": "uint256"
                }
            ],
            "name": "changeUnstakingFee",
            "outputs": [],
            "stateMutability": "nonpayable",
            "type": "function"
        },
        {
            "inputs": [],
            "name": "demonz",
            "outputs": [
                {
                    "internalType": "address",
                    "name": "",
                    "type": "address"
                }
            ],
            "stateMutability": "view",
            "type": "function"
        },
        {
            "inputs": [
                {
                    "internalType": "address",
                    "name": "_user",
                    "type": "address"
                }
            ],
            "name": "getStakedTokens",
            "outputs": [
                {
                    "internalType": "uint256[]",
                    "name": "tokenIds",
                    "type": "uint256[]"
                }
            ],
            "stateMutability": "view",
            "type": "function"
        },
        {
            "inputs": [
                {
                    "internalType": "address",
                    "name": "",
                    "type": "address"
                },
                {
                    "internalType": "address",
                    "name": "",
                    "type": "address"
                },
                {
                    "internalType": "uint256",
                    "name": "",
                    "type": "uint256"
                },
                {
                    "internalType": "bytes",
                    "name": "",
                    "type": "bytes"
                }
            ],
            "name": "onERC721Received",
            "outputs": [
                {
                    "internalType": "bytes4",
                    "name": "",
                    "type": "bytes4"
                }
            ],
            "stateMutability": "nonpayable",
            "type": "function"
        },
        {
            "inputs": [],
            "name": "owner",
            "outputs": [
                {
                    "internalType": "address",
                    "name": "",
                    "type": "address"
                }
            ],
            "stateMutability": "view",
            "type": "function"
        },
        {
            "inputs": [],
            "name": "renounceOwnership",
            "outputs": [],
            "stateMutability": "nonpayable",
            "type": "function"
        },
        {
            "inputs": [],
            "name": "rewardsToken",
            "outputs": [
                {
                    "internalType": "contract IERC20",
                    "name": "",
                    "type": "address"
                }
            ],
            "stateMutability": "view",
            "type": "function"
        },
        {
            "inputs": [
                {
                    "internalType": "uint256",
                    "name": "_id",
                    "type": "uint256"
                }
            ],
            "name": "stake",
            "outputs": [],
            "stateMutability": "nonpayable",
            "type": "function"
        },
        {
            "inputs": [
                {
                    "internalType": "uint256[]",
                    "name": "_ids",
                    "type": "uint256[]"
                }
            ],
            "name": "stakeBatch",
            "outputs": [],
            "stateMutability": "nonpayable",
            "type": "function"
        },
        {
            "inputs": [
                {
                    "internalType": "address",
                    "name": "newOwner",
                    "type": "address"
                }
            ],
            "name": "transferOwnership",
            "outputs": [],
            "stateMutability": "nonpayable",
            "type": "function"
        },
        {
            "inputs": [
                {
                    "internalType": "uint256",
                    "name": "_id",
                    "type": "uint256"
                }
            ],
            "name": "unstake",
            "outputs": [],
            "stateMutability": "nonpayable",
            "type": "function"
        },
        {
            "inputs": [
                {
                    "internalType": "uint256[]",
                    "name": "_ids",
                    "type": "uint256[]"
                }
            ],
            "name": "unstakeBatch",
            "outputs": [],
            "stateMutability": "nonpayable",
            "type": "function"
        },
        {
            "inputs": [
                {
                    "internalType": "address",
                    "name": "",
                    "type": "address"
                }
            ],
            "name": "userInfo",
            "outputs": [
                {
                    "internalType": "uint256",
                    "name": "amountStaked",
                    "type": "uint256"
                }
            ],
            "stateMutability": "view",
            "type": "function"
        }
    ],
    "bytecode": "6080604052600380546001600160a01b03191673ae16529ed90fafc927d774ea7be1b95d826664e317905566d529ae9e86000060055567011c37937e08000060065534801561004d57600080fd5b50604051610fc1380380610fc183398101604081905261006c916100ee565b6100753361009e565b60018055600480546001600160a01b0319166001600160a01b039290921691909117905561011e565b600080546001600160a01b038381166001600160a01b0319831681178455604051919092169283917f8be0079c531659141344cd1fd0a4f28419497f9722a3daafe3b4186f6b6457e09190a35050565b60006020828403121561010057600080fd5b81516001600160a01b038116811461011757600080fd5b9392505050565b610e948061012d6000396000f3fe608060405234801561001057600080fd5b50600436106100f55760003560e01c806363c28db111610097578063b98d92c611610066578063b98d92c614610243578063d1af0c7d14610256578063e64a21f314610269578063f2fde38b1461027c57600080fd5b806363c28db1146101f7578063715018a6146102175780638da5cb5b1461021f578063a694fc3a1461023057600080fd5b8063230f436d116100d3578063230f436d146101935780632e17de78146101a657806358bd2e89146101b95780635f1fbd1f146101cc57600080fd5b8063150b7a02146100fa57806318d1fed3146101505780631959a00214610165575b600080fd5b610132610108366004610bb1565b7f150b7a023d4804d13e8c85fb27262cb750cf6ba9f9dd3bb30d90f482ceeb4b1f95945050505050565b6040516001600160e01b031990911681526020015b60405180910390f35b61016361015e366004610d15565b61028f565b005b610185610173366004610b77565b60026020526000908152604090205481565b604051908152602001610147565b6101636101a1366004610c50565b610319565b6101636101b4366004610d15565b61035c565b6101636101c7366004610b77565b610369565b6003546101df906001600160a01b031681565b6040516001600160a01b039091168152602001610147565b61020a610205366004610b77565b610413565b6040516101479190610d2e565b610163610482565b6000546001600160a01b03166101df565b61016361023e366004610d15565b6104b8565b610163610251366004610d15565b6104c2565b6004546101df906001600160a01b031681565b610163610277366004610c50565b610543565b61016361028a366004610b77565b610582565b6000546001600160a01b031633146102c25760405162461bcd60e51b81526004016102b990610d72565b60405180910390fd5b8060065414156103145760405162461bcd60e51b815260206004820152601a60248201527f4445565f4552523a2056414c554520414c52454144592053455400000000000060448201526064016102b9565b600655565b60005b8151811015610358576103483383838151811061033b5761033b610e1d565b602002602001015161061a565b61035181610dd6565b905061031c565b5050565b6103663382610826565b50565b6000546001600160a01b031633146103935760405162461bcd60e51b81526004016102b990610d72565b6003546001600160a01b03828116911614156103f15760405162461bcd60e51b815260206004820152601c60248201527f4445565f4552523a204144445245535320414c5245414459205345540000000060448201526064016102b9565b600380546001600160a01b0319166001600160a01b0392909216919091179055565b6001600160a01b03811660009081526002602090815260409182902060010180548351818402810184019094528084526060939283018282801561047657602002820191906000526020600020905b815481526020019060010190808311610462575b50505050509050919050565b6000546001600160a01b031633146104ac5760405162461bcd60e51b81526004016102b990610d72565b6104b66000610ae2565b565b610366338261061a565b6000546001600160a01b031633146104ec5760405162461bcd60e51b81526004016102b990610d72565b80600554141561053e5760405162461bcd60e51b815260206004820152601a60248201527f4445565f4552523a2056414c554520414c52454144592053455400000000000060448201526064016102b9565b600555565b60005b8151811015610358576105723383838151811061056557610565610e1d565b6020026020010151610826565b61057b81610dd6565b9050610546565b6000546001600160a01b031633146105ac5760405162461bcd60e51b81526004016102b990610d72565b6001600160a01b0381166106115760405162461bcd60e51b815260206004820152602660248201527f4f776e61626c653a206e6577206f776e657220697320746865207a65726f206160448201526564647265737360d01b60648201526084016102b9565b61036681610ae2565b6005543410156106635760405162461bcd60e51b81526020600482015260146024820152731154948e88119151481393d50810d3d59154915160621b60448201526064016102b9565b6003546040516331a9108f60e11b8152600481018390526001600160a01b03848116921690636352211e9060240160206040518083038186803b1580156106a957600080fd5b505afa1580156106bd573d6000803e3d6000fd5b505050506040513d601f19601f820116820180604052508101906106e19190610b94565b6001600160a01b0316146107375760405162461bcd60e51b815260206004820152601c60248201527f4552523a20594f5520444f4e54204f574e205448495320544f4b454e0000000060448201526064016102b9565b600354604051632142170760e11b81526001600160a01b03848116600483015230602483015260448201849052909116906342842e0e90606401600060405180830381600087803b15801561078b57600080fd5b505af115801561079f573d6000803e3d6000fd5b505050506001600160a01b038216600090815260026020526040902080546107c8906001610b32565b815560018082018054918201815560009081526020908190209091018390556040516001600160a01b03851681527f308b82450ff18a1ebf66a287435be93ec4b390d5b9b481233c80d67a02f781c2910160405180910390a1505050565b60055434101561086f5760405162461bcd60e51b81526020600482015260146024820152731154948e88119151481393d50810d3d59154915160621b60448201526064016102b9565b6003546040516331a9108f60e11b8152600481018390526001600160a01b03848116921690636352211e9060240160206040518083038186803b1580156108b557600080fd5b505afa1580156108c9573d6000803e3d6000fd5b505050506040513d601f19601f820116820180604052508101906108ed9190610b94565b6001600160a01b0316146109435760405162461bcd60e51b815260206004820152601c60248201527f4552523a20594f5520444f4e54204f574e205448495320544f4b454e0000000060448201526064016102b9565b6001600160a01b03828116600081815260026020526040908190206003549151632142170760e11b81523060048201526024810193909352604483018590529216906342842e0e90606401600060405180830381600087803b1580156109a857600080fd5b505af11580156109bc573d6000803e3d6000fd5b505050506001818101546000916109d291610dbf565b905060008260010182815481106109eb576109eb610e1d565b90600052602060002001549050600083600201600086815260200190815260200160002054905081846001018281548110610a2857610a28610e1d565b60009182526020808320909101929092558381526002860190915260409020819055600184015415610ab15783600101805480610a6757610a67610e07565b60019003818190600052602060002001600090559055836002016000868152602001908152602001600020600090556001846000016000828254610aab9190610dbf565b90915550505b8354610ada5733600090815260026020526040812081815590610ad76001830182610b45565b50505b505050505050565b600080546001600160a01b038381166001600160a01b0319831681178455604051919092169283917f8be0079c531659141344cd1fd0a4f28419497f9722a3daafe3b4186f6b6457e09190a35050565b6000610b3e8284610da7565b9392505050565b508054600082559060005260206000209081019061036691905b80821115610b735760008155600101610b5f565b5090565b600060208284031215610b8957600080fd5b8135610b3e81610e49565b600060208284031215610ba657600080fd5b8151610b3e81610e49565b600080600080600060808688031215610bc957600080fd5b8535610bd481610e49565b94506020860135610be481610e49565b935060408601359250606086013567ffffffffffffffff80821115610c0857600080fd5b818801915088601f830112610c1c57600080fd5b813581811115610c2b57600080fd5b896020828501011115610c3d57600080fd5b9699959850939650602001949392505050565b60006020808385031215610c6357600080fd5b823567ffffffffffffffff80821115610c7b57600080fd5b818501915085601f830112610c8f57600080fd5b813581811115610ca157610ca1610e33565b8060051b604051601f19603f83011681018181108582111715610cc657610cc6610e33565b604052828152858101935084860182860187018a1015610ce557600080fd5b600095505b83861015610d08578035855260019590950194938601938601610cea565b5098975050505050505050565b600060208284031215610d2757600080fd5b5035919050565b6020808252825182820181905260009190848201906040850190845b81811015610d6657835183529284019291840191600101610d4a565b50909695505050505050565b6020808252818101527f4f776e61626c653a2063616c6c6572206973206e6f7420746865206f776e6572604082015260600190565b60008219821115610dba57610dba610df1565b500190565b600082821015610dd157610dd1610df1565b500390565b6000600019821415610dea57610dea610df1565b5060010190565b634e487b7160e01b600052601160045260246000fd5b634e487b7160e01b600052603160045260246000fd5b634e487b7160e01b600052603260045260246000fd5b634e487b7160e01b600052604160045260246000fd5b6001600160a01b038116811461036657600080fdfea2646970667358221220c33d46b005fcf85565cb385b9a1a600461f1b44fc0e04239897ff39994dc3f3564736f6c63430008070033",
    "sourcePath": "c:/Users/Public/Desktop/nft-farm-core/contracts/Masterdemon.sol",
    "compiler": {
        "name": "solc",
        "version": "0.8.7+commit.e28d00a7"
    },
    "functionHashes": {
        "changeDemonzAddress(address)": "58bd2e89",
        "changeStakingFee(uint256)": "b98d92c6",
        "changeUnstakingFee(uint256)": "18d1fed3",
        "demonz()": "5f1fbd1f",
        "getStakedTokens(address)": "63c28db1",
        "onERC721Received(address,address,uint256,bytes)": "150b7a02",
        "owner()": "8da5cb5b",
        "renounceOwnership()": "715018a6",
        "rewardsToken()": "d1af0c7d",
        "stake(uint256)": "a694fc3a",
        "stakeBatch(uint256[])": "230f436d",
        "transferOwnership(address)": "f2fde38b",
        "unstake(uint256)": "2e17de78",
        "unstakeBatch(uint256[])": "e64a21f3",
        "userInfo(address)": "1959a002"
    },
    "gasEstimates": {
        "creation": {
            "codeDepositCost": "746400",
            "executionCost": "infinite",
            "totalCost": "infinite"
        },
        "external": {
            "changeDemonzAddress(address)": "28925",
            "changeStakingFee(uint256)": "26612",
            "changeUnstakingFee(uint256)": "26636",
            "demonz()": "2426",
            "getStakedTokens(address)": "infinite",
            "onERC721Received(address,address,uint256,bytes)": "infinite",
            "owner()": "2398",
            "renounceOwnership()": "28159",
            "rewardsToken()": "2381",
            "stake(uint256)": "infinite",
            "stakeBatch(uint256[])": "infinite",
            "transferOwnership(address)": "infinite",
            "unstake(uint256)": "infinite",
            "unstakeBatch(uint256[])": "infinite",
            "userInfo(address)": "2581"
        },
        "internal": {
            "_stake(address,uint256)": "infinite",
            "_unstake(address,uint256)": "infinite"
        }
    }
}