{
    "contractName": "Mastergovernor",
    "abi": [
        {
            "inputs": [
                {
                    "internalType": "contract ERC20Votes",
                    "name": "_token",
                    "type": "address"
                },
                {
                    "internalType": "contract TimelockController",
                    "name": "_timelock",
                    "type": "address"
                }
            ],
            "stateMutability": "nonpayable",
            "type": "constructor"
        },
        {
            "anonymous": false,
            "inputs": [
                {
                    "indexed": false,
                    "internalType": "uint256",
                    "name": "proposalId",
                    "type": "uint256"
                }
            ],
            "name": "ProposalCanceled",
            "type": "event"
        },
        {
            "anonymous": false,
            "inputs": [
                {
                    "indexed": false,
                    "internalType": "uint256",
                    "name": "proposalId",
                    "type": "uint256"
                },
                {
                    "indexed": false,
                    "internalType": "address",
                    "name": "proposer",
                    "type": "address"
                },
                {
                    "indexed": false,
                    "internalType": "address[]",
                    "name": "targets",
                    "type": "address[]"
                },
                {
                    "indexed": false,
                    "internalType": "uint256[]",
                    "name": "values",
                    "type": "uint256[]"
                },
                {
                    "indexed": false,
                    "internalType": "string[]",
                    "name": "signatures",
                    "type": "string[]"
                },
                {
                    "indexed": false,
                    "internalType": "bytes[]",
                    "name": "calldatas",
                    "type": "bytes[]"
                },
                {
                    "indexed": false,
                    "internalType": "uint256",
                    "name": "startBlock",
                    "type": "uint256"
                },
                {
                    "indexed": false,
                    "internalType": "uint256",
                    "name": "endBlock",
                    "type": "uint256"
                },
                {
                    "indexed": false,
                    "internalType": "string",
                    "name": "description",
                    "type": "string"
                }
            ],
            "name": "ProposalCreated",
            "type": "event"
        },
        {
            "anonymous": false,
            "inputs": [
                {
                    "indexed": false,
                    "internalType": "uint256",
                    "name": "proposalId",
                    "type": "uint256"
                }
            ],
            "name": "ProposalExecuted",
            "type": "event"
        },
        {
            "anonymous": false,
            "inputs": [
                {
                    "indexed": false,
                    "internalType": "uint256",
                    "name": "proposalId",
                    "type": "uint256"
                },
                {
                    "indexed": false,
                    "internalType": "uint256",
                    "name": "eta",
                    "type": "uint256"
                }
            ],
            "name": "ProposalQueued",
            "type": "event"
        },
        {
            "anonymous": false,
            "inputs": [
                {
                    "indexed": false,
                    "internalType": "uint256",
                    "name": "oldQuorumNumerator",
                    "type": "uint256"
                },
                {
                    "indexed": false,
                    "internalType": "uint256",
                    "name": "newQuorumNumerator",
                    "type": "uint256"
                }
            ],
            "name": "QuorumNumeratorUpdated",
            "type": "event"
        },
        {
            "anonymous": false,
            "inputs": [
                {
                    "indexed": false,
                    "internalType": "address",
                    "name": "oldTimelock",
                    "type": "address"
                },
                {
                    "indexed": false,
                    "internalType": "address",
                    "name": "newTimelock",
                    "type": "address"
                }
            ],
            "name": "TimelockChange",
            "type": "event"
        },
        {
            "anonymous": false,
            "inputs": [
                {
                    "indexed": true,
                    "internalType": "address",
                    "name": "voter",
                    "type": "address"
                },
                {
                    "indexed": false,
                    "internalType": "uint256",
                    "name": "proposalId",
                    "type": "uint256"
                },
                {
                    "indexed": false,
                    "internalType": "uint8",
                    "name": "support",
                    "type": "uint8"
                },
                {
                    "indexed": false,
                    "internalType": "uint256",
                    "name": "weight",
                    "type": "uint256"
                },
                {
                    "indexed": false,
                    "internalType": "string",
                    "name": "reason",
                    "type": "string"
                }
            ],
            "name": "VoteCast",
            "type": "event"
        },
        {
            "inputs": [],
            "name": "BALLOT_TYPEHASH",
            "outputs": [
                {
                    "internalType": "bytes32",
                    "name": "",
                    "type": "bytes32"
                }
            ],
            "stateMutability": "view",
            "type": "function"
        },
        {
            "inputs": [],
            "name": "COUNTING_MODE",
            "outputs": [
                {
                    "internalType": "string",
                    "name": "",
                    "type": "string"
                }
            ],
            "stateMutability": "pure",
            "type": "function"
        },
        {
            "inputs": [
                {
                    "internalType": "uint256",
                    "name": "proposalId",
                    "type": "uint256"
                },
                {
                    "internalType": "uint8",
                    "name": "support",
                    "type": "uint8"
                }
            ],
            "name": "castVote",
            "outputs": [
                {
                    "internalType": "uint256",
                    "name": "",
                    "type": "uint256"
                }
            ],
            "stateMutability": "nonpayable",
            "type": "function"
        },
        {
            "inputs": [
                {
                    "internalType": "uint256",
                    "name": "proposalId",
                    "type": "uint256"
                },
                {
                    "internalType": "uint8",
                    "name": "support",
                    "type": "uint8"
                },
                {
                    "internalType": "uint8",
                    "name": "v",
                    "type": "uint8"
                },
                {
                    "internalType": "bytes32",
                    "name": "r",
                    "type": "bytes32"
                },
                {
                    "internalType": "bytes32",
                    "name": "s",
                    "type": "bytes32"
                }
            ],
            "name": "castVoteBySig",
            "outputs": [
                {
                    "internalType": "uint256",
                    "name": "",
                    "type": "uint256"
                }
            ],
            "stateMutability": "nonpayable",
            "type": "function"
        },
        {
            "inputs": [
                {
                    "internalType": "uint256",
                    "name": "proposalId",
                    "type": "uint256"
                },
                {
                    "internalType": "uint8",
                    "name": "support",
                    "type": "uint8"
                },
                {
                    "internalType": "string",
                    "name": "reason",
                    "type": "string"
                }
            ],
            "name": "castVoteWithReason",
            "outputs": [
                {
                    "internalType": "uint256",
                    "name": "",
                    "type": "uint256"
                }
            ],
            "stateMutability": "nonpayable",
            "type": "function"
        },
        {
            "inputs": [
                {
                    "internalType": "address[]",
                    "name": "targets",
                    "type": "address[]"
                },
                {
                    "internalType": "uint256[]",
                    "name": "values",
                    "type": "uint256[]"
                },
                {
                    "internalType": "bytes[]",
                    "name": "calldatas",
                    "type": "bytes[]"
                },
                {
                    "internalType": "bytes32",
                    "name": "descriptionHash",
                    "type": "bytes32"
                }
            ],
            "name": "execute",
            "outputs": [
                {
                    "internalType": "uint256",
                    "name": "",
                    "type": "uint256"
                }
            ],
            "stateMutability": "payable",
            "type": "function"
        },
        {
            "inputs": [
                {
                    "internalType": "address",
                    "name": "account",
                    "type": "address"
                },
                {
                    "internalType": "uint256",
                    "name": "blockNumber",
                    "type": "uint256"
                }
            ],
            "name": "getVotes",
            "outputs": [
                {
                    "internalType": "uint256",
                    "name": "",
                    "type": "uint256"
                }
            ],
            "stateMutability": "view",
            "type": "function"
        },
        {
            "inputs": [
                {
                    "internalType": "uint256",
                    "name": "proposalId",
                    "type": "uint256"
                },
                {
                    "internalType": "address",
                    "name": "account",
                    "type": "address"
                }
            ],
            "name": "hasVoted",
            "outputs": [
                {
                    "internalType": "bool",
                    "name": "",
                    "type": "bool"
                }
            ],
            "stateMutability": "view",
            "type": "function"
        },
        {
            "inputs": [
                {
                    "internalType": "address[]",
                    "name": "targets",
                    "type": "address[]"
                },
                {
                    "internalType": "uint256[]",
                    "name": "values",
                    "type": "uint256[]"
                },
                {
                    "internalType": "bytes[]",
                    "name": "calldatas",
                    "type": "bytes[]"
                },
                {
                    "internalType": "bytes32",
                    "name": "descriptionHash",
                    "type": "bytes32"
                }
            ],
            "name": "hashProposal",
            "outputs": [
                {
                    "internalType": "uint256",
                    "name": "",
                    "type": "uint256"
                }
            ],
            "stateMutability": "pure",
            "type": "function"
        },
        {
            "inputs": [],
            "name": "name",
            "outputs": [
                {
                    "internalType": "string",
                    "name": "",
                    "type": "string"
                }
            ],
            "stateMutability": "view",
            "type": "function"
        },
        {
            "inputs": [
                {
                    "internalType": "uint256",
                    "name": "proposalId",
                    "type": "uint256"
                }
            ],
            "name": "proposalDeadline",
            "outputs": [
                {
                    "internalType": "uint256",
                    "name": "",
                    "type": "uint256"
                }
            ],
            "stateMutability": "view",
            "type": "function"
        },
        {
            "inputs": [
                {
                    "internalType": "uint256",
                    "name": "proposalId",
                    "type": "uint256"
                }
            ],
            "name": "proposalEta",
            "outputs": [
                {
                    "internalType": "uint256",
                    "name": "",
                    "type": "uint256"
                }
            ],
            "stateMutability": "view",
            "type": "function"
        },
        {
            "inputs": [
                {
                    "internalType": "uint256",
                    "name": "proposalId",
                    "type": "uint256"
                }
            ],
            "name": "proposalSnapshot",
            "outputs": [
                {
                    "internalType": "uint256",
                    "name": "",
                    "type": "uint256"
                }
            ],
            "stateMutability": "view",
            "type": "function"
        },
        {
            "inputs": [
                {
                    "internalType": "uint256",
                    "name": "proposalId",
                    "type": "uint256"
                }
            ],
            "name": "proposalVotes",
            "outputs": [
                {
                    "internalType": "uint256",
                    "name": "againstVotes",
                    "type": "uint256"
                },
                {
                    "internalType": "uint256",
                    "name": "forVotes",
                    "type": "uint256"
                },
                {
                    "internalType": "uint256",
                    "name": "abstainVotes",
                    "type": "uint256"
                }
            ],
            "stateMutability": "view",
            "type": "function"
        },
        {
            "inputs": [
                {
                    "internalType": "address[]",
                    "name": "targets",
                    "type": "address[]"
                },
                {
                    "internalType": "uint256[]",
                    "name": "values",
                    "type": "uint256[]"
                },
                {
                    "internalType": "bytes[]",
                    "name": "calldatas",
                    "type": "bytes[]"
                },
                {
                    "internalType": "string",
                    "name": "description",
                    "type": "string"
                }
            ],
            "name": "propose",
            "outputs": [
                {
                    "internalType": "uint256",
                    "name": "",
                    "type": "uint256"
                }
            ],
            "stateMutability": "nonpayable",
            "type": "function"
        },
        {
            "inputs": [
                {
                    "internalType": "address[]",
                    "name": "targets",
                    "type": "address[]"
                },
                {
                    "internalType": "uint256[]",
                    "name": "values",
                    "type": "uint256[]"
                },
                {
                    "internalType": "bytes[]",
                    "name": "calldatas",
                    "type": "bytes[]"
                },
                {
                    "internalType": "bytes32",
                    "name": "descriptionHash",
                    "type": "bytes32"
                }
            ],
            "name": "queue",
            "outputs": [
                {
                    "internalType": "uint256",
                    "name": "",
                    "type": "uint256"
                }
            ],
            "stateMutability": "nonpayable",
            "type": "function"
        },
        {
            "inputs": [
                {
                    "internalType": "uint256",
                    "name": "blockNumber",
                    "type": "uint256"
                }
            ],
            "name": "quorum",
            "outputs": [
                {
                    "internalType": "uint256",
                    "name": "",
                    "type": "uint256"
                }
            ],
            "stateMutability": "view",
            "type": "function"
        },
        {
            "inputs": [],
            "name": "quorumDenominator",
            "outputs": [
                {
                    "internalType": "uint256",
                    "name": "",
                    "type": "uint256"
                }
            ],
            "stateMutability": "view",
            "type": "function"
        },
        {
            "inputs": [],
            "name": "quorumNumerator",
            "outputs": [
                {
                    "internalType": "uint256",
                    "name": "",
                    "type": "uint256"
                }
            ],
            "stateMutability": "view",
            "type": "function"
        },
        {
            "inputs": [
                {
                    "internalType": "uint256",
                    "name": "proposalId",
                    "type": "uint256"
                }
            ],
            "name": "state",
            "outputs": [
                {
                    "internalType": "enum IGovernor.ProposalState",
                    "name": "",
                    "type": "uint8"
                }
            ],
            "stateMutability": "view",
            "type": "function"
        },
        {
            "inputs": [
                {
                    "internalType": "bytes4",
                    "name": "interfaceId",
                    "type": "bytes4"
                }
            ],
            "name": "supportsInterface",
            "outputs": [
                {
                    "internalType": "bool",
                    "name": "",
                    "type": "bool"
                }
            ],
            "stateMutability": "view",
            "type": "function"
        },
        {
            "inputs": [],
            "name": "timelock",
            "outputs": [
                {
                    "internalType": "address",
                    "name": "",
                    "type": "address"
                }
            ],
            "stateMutability": "view",
            "type": "function"
        },
        {
            "inputs": [],
            "name": "token",
            "outputs": [
                {
                    "internalType": "contract ERC20Votes",
                    "name": "",
                    "type": "address"
                }
            ],
            "stateMutability": "view",
            "type": "function"
        },
        {
            "inputs": [
                {
                    "internalType": "uint256",
                    "name": "newQuorumNumerator",
                    "type": "uint256"
                }
            ],
            "name": "updateQuorumNumerator",
            "outputs": [],
            "stateMutability": "nonpayable",
            "type": "function"
        },
        {
            "inputs": [
                {
                    "internalType": "contract TimelockController",
                    "name": "newTimelock",
                    "type": "address"
                }
            ],
            "name": "updateTimelock",
            "outputs": [],
            "stateMutability": "nonpayable",
            "type": "function"
        },
        {
            "inputs": [],
            "name": "version",
            "outputs": [
                {
                    "internalType": "string",
                    "name": "",
                    "type": "string"
                }
            ],
            "stateMutability": "view",
            "type": "function"
        },
        {
            "inputs": [],
            "name": "votingDelay",
            "outputs": [
                {
                    "internalType": "uint256",
                    "name": "",
                    "type": "uint256"
                }
            ],
            "stateMutability": "pure",
            "type": "function"
        },
        {
            "inputs": [],
            "name": "votingPeriod",
            "outputs": [
                {
                    "internalType": "uint256",
                    "name": "",
                    "type": "uint256"
                }
            ],
            "stateMutability": "pure",
            "type": "function"
        }
    ],
    "bytecode": "6101406040523480156200001257600080fd5b5060405162002b3138038062002b31833981016040819052620000359162000335565b806005836040518060400160405280600e81526020016d26b0b9ba32b933b7bb32b93737b960911b81525080620000716200013e60201b60201c565b815160209283012081519183019190912060c082815260e08290524660a0818152604080517f8b73c3c69bb8fe3d512ecc4cf759cc79239f7b179b0ffacaa9a75d522b39400f8189018190528183019790975260608101959095526080808601939093523085830152805180860390920182529390920190925280519084012090526101005281516200010b91600091908401906200028f565b505060601b6001600160601b03191661012052620001298162000159565b50620001358162000226565b505050620003ca565b6040805180820190915260018152603160f81b602082015290565b6064811115620001e15760405162461bcd60e51b815260206004820152604360248201527f476f7665726e6f72566f74657351756f72756d4672616374696f6e3a2071756f60448201527f72756d4e756d657261746f72206f7665722071756f72756d44656e6f6d696e616064820152623a37b960e91b608482015260a40160405180910390fd5b600380549082905560408051828152602081018490527f0553476bf02ef2726e8ce5ced78d63e26e602e4a2257b1f559418e24b4633997910160405180910390a15050565b600454604080516001600160a01b03928316815291831660208301527f08f74ea46ef7894f65eabfb5e6e695de773a000b47c529ab559178069b226401910160405180910390a1600480546001600160a01b0319166001600160a01b0392909216919091179055565b8280546200029d9062000374565b90600052602060002090601f016020900481019282620002c157600085556200030c565b82601f10620002dc57805160ff19168380011785556200030c565b828001600101855582156200030c579182015b828111156200030c578251825591602001919060010190620002ef565b506200031a9291506200031e565b5090565b5b808211156200031a57600081556001016200031f565b600080604083850312156200034957600080fd5b82516200035681620003b1565b60208401519092506200036981620003b1565b809150509250929050565b600181811c908216806200038957607f821691505b60208210811415620003ab57634e487b7160e01b600052602260045260246000fd5b50919050565b6001600160a01b0381168114620003c757600080fd5b50565b60805160a05160c05160e051610100516101205160601c6127066200042b600039600081816105de0152818161134601526113df01526000611573015260006115c20152600061159d015260006115210152600061154a01526127066000f3fe6080604052600436106101b75760003560e01c80637b3c71d3116100ec578063c59057e41161008a578063deaaa7cc11610064578063deaaa7cc14610558578063eb9019d41461058c578063f8ce560a146105ac578063fc0c546a146105cc57600080fd5b8063c59057e4146104c0578063d33219b4146104e0578063dd4e2ba51461051257600080fd5b8063a7713a70116100c6578063a7713a701461044b578063a890c91014610460578063ab58fb8e14610480578063c01f9e37146104a057600080fd5b80637b3c71d3146103f75780637d5e81e21461041757806397c3d3341461043757600080fd5b80633932abb11161015957806343859632116101335780634385963214610309578063544ffc9c1461035357806354fd4d50146103ad57806356781388146103d757600080fd5b80633932abb1146102a85780633bccf4fd146102bc5780633e4f49e6146102dc57600080fd5b806306fdde031161019557806306fdde0314610233578063160cbed7146102555780632656227d146102755780632d63f6931461028857600080fd5b806301ffc9a7146101bc57806302a251a3146101f157806306f3f9e614610211575b600080fd5b3480156101c857600080fd5b506101dc6101d7366004612002565b610600565b60405190151581526020015b60405180910390f35b3480156101fd57600080fd5b50620165f45b6040519081526020016101e8565b34801561021d57600080fd5b5061023161022c366004612049565b610611565b005b34801561023f57600080fd5b50610248610685565b6040516101e891906123c1565b34801561026157600080fd5b50610203610270366004611e78565b610717565b610203610283366004611e78565b61093f565b34801561029457600080fd5b506102036102a3366004612049565b610a12565b3480156102b457600080fd5b506002610203565b3480156102c857600080fd5b506102036102d7366004612144565b610a49565b3480156102e857600080fd5b506102fc6102f7366004612049565b610add565b6040516101e89190612399565b34801561031557600080fd5b506101dc610324366004612062565b60008281526002602090815260408083206001600160a01b038516845260030190915290205460ff1692915050565b34801561035f57600080fd5b5061039261036e366004612049565b60008181526002602081905260409091208054600182015491909201549193909250565b604080519384526020840192909252908201526060016101e8565b3480156103b957600080fd5b506040805180820190915260018152603160f81b6020820152610248565b3480156103e357600080fd5b506102036103f2366004612092565b610ae8565b34801561040357600080fd5b506102036104123660046120be565b610b11565b34801561042357600080fd5b50610203610432366004611f07565b610b63565b34801561044357600080fd5b506064610203565b34801561045757600080fd5b50600354610203565b34801561046c57600080fd5b5061023161047b36600461202c565b610b7a565b34801561048c57600080fd5b5061020361049b366004612049565b610be6565b3480156104ac57600080fd5b506102036104bb366004612049565b610c8a565b3480156104cc57600080fd5b506102036104db366004611e78565b610cb9565b3480156104ec57600080fd5b506004546001600160a01b03165b6040516001600160a01b0390911681526020016101e8565b34801561051e57600080fd5b506040805180820190915260208082527f737570706f72743d627261766f2671756f72756d3d666f722c6162737461696e90820152610248565b34801561056457600080fd5b506102037f150214d74d59b7d1e90c73fc22ef3d991dd0a76b046543d4d80ab92d2a50328f81565b34801561059857600080fd5b506102036105a7366004611e4c565b610cf3565b3480156105b857600080fd5b506102036105c7366004612049565b610cff565b3480156105d857600080fd5b506104fa7f000000000000000000000000000000000000000000000000000000000000000081565b600061060b82610d0a565b92915050565b610619610d2f565b6001600160a01b0316336001600160a01b0316146106795760405162461bcd60e51b8152602060048201526018602482015277476f7665726e6f723a206f6e6c79476f7665726e616e636560401b60448201526064015b60405180910390fd5b61068281610d48565b50565b60606000805461069490612644565b80601f01602080910402602001604051908101604052809291908181526020018280546106c090612644565b801561070d5780601f106106e25761010080835404028352916020019161070d565b820191906000526020600020905b8154815290600101906020018083116106f057829003601f168201915b5050505050905090565b60008061072686868686610cb9565b9050600461073382610add565b60078111156107445761074461268f565b146107615760405162461bcd60e51b815260040161067090612415565b6000600460009054906101000a90046001600160a01b03166001600160a01b031663f27a0c926040518163ffffffff1660e01b815260040160206040518083038186803b1580156107b157600080fd5b505afa1580156107c5573d6000803e3d6000fd5b505050506040513d601f19601f820116820180604052508101906107e99190611fe9565b6004805460405163b1c5f42760e01b81529293506001600160a01b03169163b1c5f42791610822918b918b918b916000918c91016122f3565b60206040518083038186803b15801561083a57600080fd5b505afa15801561084e573d6000803e3d6000fd5b505050506040513d601f19601f820116820180604052508101906108729190611fe9565b600083815260056020526040808220929092556004805492516308f2a0bb60e41b81526001600160a01b0390931692638f2a0bb0926108bd928c928c928c9290918c918a9101612341565b600060405180830381600087803b1580156108d757600080fd5b505af11580156108eb573d6000803e3d6000fd5b505050507f9a2e42fd6722813d69113e7d0079d3d940171428df7373df9c7f7617cfda289282824261091d91906125c0565b6040805192835260208301919091520160405180910390a15095945050505050565b60008061094e86868686610cb9565b9050600061095b82610add565b905060048160078111156109715761097161268f565b148061098e5750600581600781111561098c5761098c61268f565b145b6109aa5760405162461bcd60e51b815260040161067090612415565b600082815260016020818152604092839020600201805460ff191690921790915590518381527f712ae1383f79ac853f8d882153778e0260ef8f03b504e2866e0593e04d2b291f910160405180910390a1610a088288888888610e10565b5095945050505050565b60008181526001602090815260408083208151928301909152546001600160401b0316908190525b6001600160401b031692915050565b604080517f150214d74d59b7d1e90c73fc22ef3d991dd0a76b046543d4d80ab92d2a50328f602082015290810186905260ff851660608201526000908190610ab590610aad9060800160405160208183030381529060405280519060200120610e24565b868686610e72565b9050610ad287828860405180602001604052806000815250610e90565b979650505050505050565b600061060b82610f9b565b600080339050610b0984828560405180602001604052806000815250610e90565b949350505050565b600080339050610b5986828787878080601f016020809104026020016040519081016040528093929190818152602001838380828437600092019190915250610e9092505050565b9695505050505050565b6000610b7185858585611076565b95945050505050565b610b82610d2f565b6001600160a01b0316336001600160a01b031614610bdd5760405162461bcd60e51b8152602060048201526018602482015277476f7665726e6f723a206f6e6c79476f7665726e616e636560401b6044820152606401610670565b610682816112b4565b6004805460008381526005602052604080822054905163d45c443560e01b8152938401529182916001600160a01b03169063d45c44359060240160206040518083038186803b158015610c3857600080fd5b505afa158015610c4c573d6000803e3d6000fd5b505050506040513d601f19601f82011682018060405250810190610c709190611fe9565b905080600114610c805780610c83565b60005b9392505050565b60008181526001602081815260408084208151928301909152909101546001600160401b031690819052610a3a565b600084848484604051602001610cd294939291906122a8565b60408051601f19818403018152919052805160209091012095945050505050565b6000610c83838361131d565b600061060b826113c2565b60006001600160e01b03198216636e665ced60e01b148061060b575061060b82611475565b6000610d436004546001600160a01b031690565b905090565b6064811115610dcb5760405162461bcd60e51b815260206004820152604360248201527f476f7665726e6f72566f74657351756f72756d4672616374696f6e3a2071756f60448201527f72756d4e756d657261746f72206f7665722071756f72756d44656e6f6d696e616064820152623a37b960e91b608482015260a401610670565b600380549082905560408051828152602081018490527f0553476bf02ef2726e8ce5ced78d63e26e602e4a2257b1f559418e24b4633997910160405180910390a15050565b610e1d85858585856114aa565b5050505050565b600061060b610e3161151d565b8360405161190160f01b6020820152602281018390526042810182905260009060620160405160208183030381529060405280519060200120905092915050565b6000806000610e8387878787611610565b91509150610a08816116fd565b6000848152600160208190526040822090610eaa87610add565b6007811115610ebb57610ebb61268f565b14610f145760405162461bcd60e51b815260206004820152602360248201527f476f7665726e6f723a20766f7465206e6f742063757272656e746c792061637460448201526269766560e81b6064820152608401610670565b604080516020810190915281546001600160401b031690819052600090610f3c908790610cf3565b9050610f4a878787846118b8565b856001600160a01b03167fb8e138887d0aa13bab447e82de9d5c1777041ecd21ca36ba824ff1e6c07ddda488878488604051610f899493929190612545565b60405180910390a29695505050505050565b600080610fa783611a37565b90506004816007811115610fbd57610fbd61268f565b14610fc85792915050565b60008381526005602052604090205480610fe3575092915050565b60048054604051632ab0f52960e01b81529182018390526001600160a01b031690632ab0f5299060240160206040518083038186803b15801561102557600080fd5b505afa158015611039573d6000803e3d6000fd5b505050506040513d601f19601f8201168201806040525081019061105d9190611fc7565b1561106c575060079392505050565b5060059392505050565b60008061108c8686868680519060200120610cb9565b905084518651146110af5760405162461bcd60e51b8152600401610670906123d4565b83518651146110d05760405162461bcd60e51b8152600401610670906123d4565b60008651116111215760405162461bcd60e51b815260206004820152601860248201527f476f7665726e6f723a20656d7074792070726f706f73616c00000000000000006044820152606401610670565b600081815260016020908152604091829020825191820190925281546001600160401b031690819052156111a15760405162461bcd60e51b815260206004820152602160248201527f476f7665726e6f723a2070726f706f73616c20616c72656164792065786973746044820152607360f81b6064820152608401610670565b60006111ad6002611b9a565b6111b643611b9a565b6111c091906125d8565b905060006111d0620165f4611b9a565b6111da90836125d8565b835467ffffffffffffffff19166001600160401b038416178455905060018301805467ffffffffffffffff19166001600160401b0383161790557f7d84a6263ae0d98d3329bd7b46bb4e8d6f98cd35a7adb45c274c8b7fd5ebd5e084338b8b8d516001600160401b03811115611252576112526126a5565b60405190808252806020026020018201604052801561128557816020015b60608152602001906001900390816112705790505b508c88888e60405161129f99989796959493929190612456565b60405180910390a15091979650505050505050565b600454604080516001600160a01b03928316815291831660208301527f08f74ea46ef7894f65eabfb5e6e695de773a000b47c529ab559178069b226401910160405180910390a1600480546001600160a01b0319166001600160a01b0392909216919091179055565b604051630748d63560e31b81526001600160a01b038381166004830152602482018390526000917f000000000000000000000000000000000000000000000000000000000000000090911690633a46b1a89060440160206040518083038186803b15801561138a57600080fd5b505afa15801561139e573d6000803e3d6000fd5b505050506040513d601f19601f82011682018060405250810190610c839190611fe9565b60006064600354604051632394e7a360e21b8152600481018590527f00000000000000000000000000000000000000000000000000000000000000006001600160a01b031690638e539e8c9060240160206040518083038186803b15801561142957600080fd5b505afa15801561143d573d6000803e3d6000fd5b505050506040513d601f19601f820116820180604052508101906114619190611fe9565b61146b9190612625565b61060b9190612603565b60006001600160e01b0319821663bf26d89760e01b148061060b57506301ffc9a760e01b6001600160e01b031983161461060b565b6004805460405163e38335e560e01b81526001600160a01b039091169163e38335e59134916114e4918991899189916000918a91016122f3565b6000604051808303818588803b1580156114fd57600080fd5b505af1158015611511573d6000803e3d6000fd5b50505050505050505050565b60007f000000000000000000000000000000000000000000000000000000000000000046141561156c57507f000000000000000000000000000000000000000000000000000000000000000090565b50604080517f00000000000000000000000000000000000000000000000000000000000000006020808301919091527f0000000000000000000000000000000000000000000000000000000000000000828401527f000000000000000000000000000000000000000000000000000000000000000060608301524660808301523060a0808401919091528351808403909101815260c0909201909252805191012090565b6000807f7fffffffffffffffffffffffffffffff5d576e7357a4501ddfe92f46681b20a083111561164757506000905060036116f4565b8460ff16601b1415801561165f57508460ff16601c14155b1561167057506000905060046116f4565b6040805160008082526020820180845289905260ff881692820192909252606081018690526080810185905260019060a0016020604051602081039080840390855afa1580156116c4573d6000803e3d6000fd5b5050604051601f1901519150506001600160a01b0381166116ed576000600192509250506116f4565b9150600090505b94509492505050565b60008160048111156117115761171161268f565b141561171a5750565b600181600481111561172e5761172e61268f565b141561177c5760405162461bcd60e51b815260206004820152601860248201527f45434453413a20696e76616c6964207369676e617475726500000000000000006044820152606401610670565b60028160048111156117905761179061268f565b14156117de5760405162461bcd60e51b815260206004820152601f60248201527f45434453413a20696e76616c6964207369676e6174757265206c656e677468006044820152606401610670565b60038160048111156117f2576117f261268f565b141561184b5760405162461bcd60e51b815260206004820152602260248201527f45434453413a20696e76616c6964207369676e6174757265202773272076616c604482015261756560f01b6064820152608401610670565b600481600481111561185f5761185f61268f565b14156106825760405162461bcd60e51b815260206004820152602260248201527f45434453413a20696e76616c6964207369676e6174757265202776272076616c604482015261756560f01b6064820152608401610670565b60008481526002602090815260408083206001600160a01b0387168452600381019092529091205460ff16156119405760405162461bcd60e51b815260206004820152602760248201527f476f7665726e6f72566f74696e6753696d706c653a20766f746520616c726561604482015266191e4818d85cdd60ca1b6064820152608401610670565b6001600160a01b03841660009081526003820160205260408120805460ff1916600117905560ff168360ff161415611991578181600001600082825461198691906125c0565b90915550610e1d9050565b60ff8316600114156119b1578181600101600082825461198691906125c0565b60ff8316600214156119d1578181600201600082825461198691906125c0565b60405162461bcd60e51b815260206004820152603560248201527f476f7665726e6f72566f74696e6753696d706c653a20696e76616c69642076616044820152746c756520666f7220656e756d20566f74655479706560581b6064820152608401610670565b6000818152600160208181526040808420815160a08101835281546001600160401b0390811660808301908152825283518086018552958301541685529283019390935260029092015460ff80821615801594840194909452610100909104161515606082015290611aac5750600792915050565b806060015115611abf5750600292915050565b805151436001600160401b039091161115611add5750600092915050565b602081015151436001600160401b039091161115611afe5750600192915050565b611b0b8160200151611c06565b15611b4c57611b1983611c35565b8015611b38575060008381526002602052604090208054600190910154115b611b43576003610c83565b60049392505050565b60405162461bcd60e51b815260206004820152601d60248201527f476f7665726e6f723a20756e6b6e6f776e2070726f706f73616c2069640000006044820152606401610670565b50919050565b60006001600160401b03821115611c025760405162461bcd60e51b815260206004820152602660248201527f53616665436173743a2076616c756520646f65736e27742066697420696e203660448201526534206269747360d01b6064820152608401610670565b5090565b6000611c1b82516001600160401b0316151590565b801561060b57505051436001600160401b03909116111590565b60008181526002602081905260408220908101546001820154611c5891906125c0565b611c646105c785610a12565b11159392505050565b60006001600160401b03831115611c8657611c866126a5565b611c99601f8401601f191660200161256d565b9050828152838383011115611cad57600080fd5b828260208301376000602084830101529392505050565b600082601f830112611cd557600080fd5b81356020611cea611ce58361259d565b61256d565b80838252828201915082860187848660051b8901011115611d0a57600080fd5b60005b85811015611d32578135611d20816126bb565b84529284019290840190600101611d0d565b5090979650505050505050565b600082601f830112611d5057600080fd5b81356020611d60611ce58361259d565b80838252828201915082860187848660051b8901011115611d8057600080fd5b60005b85811015611d325781356001600160401b03811115611da157600080fd5b8801603f81018a13611db257600080fd5b611dc38a8783013560408401611c6d565b8552509284019290840190600101611d83565b600082601f830112611de757600080fd5b81356020611df7611ce58361259d565b80838252828201915082860187848660051b8901011115611e1757600080fd5b60005b85811015611d3257813584529284019290840190600101611e1a565b803560ff81168114611e4757600080fd5b919050565b60008060408385031215611e5f57600080fd5b8235611e6a816126bb565b946020939093013593505050565b60008060008060808587031215611e8e57600080fd5b84356001600160401b0380821115611ea557600080fd5b611eb188838901611cc4565b95506020870135915080821115611ec757600080fd5b611ed388838901611dd6565b94506040870135915080821115611ee957600080fd5b50611ef687828801611d3f565b949793965093946060013593505050565b60008060008060808587031215611f1d57600080fd5b84356001600160401b0380821115611f3457600080fd5b611f4088838901611cc4565b95506020870135915080821115611f5657600080fd5b611f6288838901611dd6565b94506040870135915080821115611f7857600080fd5b611f8488838901611d3f565b93506060870135915080821115611f9a57600080fd5b508501601f81018713611fac57600080fd5b611fbb87823560208401611c6d565b91505092959194509250565b600060208284031215611fd957600080fd5b81518015158114610c8357600080fd5b600060208284031215611ffb57600080fd5b5051919050565b60006020828403121561201457600080fd5b81356001600160e01b031981168114610c8357600080fd5b60006020828403121561203e57600080fd5b8135610c83816126bb565b60006020828403121561205b57600080fd5b5035919050565b6000806040838503121561207557600080fd5b823591506020830135612087816126bb565b809150509250929050565b600080604083850312156120a557600080fd5b823591506120b560208401611e36565b90509250929050565b600080600080606085870312156120d457600080fd5b843593506120e460208601611e36565b925060408501356001600160401b038082111561210057600080fd5b818701915087601f83011261211457600080fd5b81358181111561212357600080fd5b88602082850101111561213557600080fd5b95989497505060200194505050565b600080600080600060a0868803121561215c57600080fd5b8535945061216c60208701611e36565b935061217a60408701611e36565b94979396509394606081013594506080013592915050565b600081518084526020808501945080840160005b838110156121cb5781516001600160a01b0316875295820195908201906001016121a6565b509495945050505050565b600081518084526020808501808196508360051b8101915082860160005b8581101561221e57828403895261220c84835161225b565b988501989350908401906001016121f4565b5091979650505050505050565b600081518084526020808501945080840160005b838110156121cb5781518752958201959082019060010161223f565b6000815180845260005b8181101561228157602081850181015186830182015201612265565b81811115612293576000602083870101525b50601f01601f19169290920160200192915050565b6080815260006122bb6080830187612192565b82810360208401526122cd818761222b565b905082810360408401526122e181866121d6565b91505082606083015295945050505050565b60a08152600061230660a0830188612192565b8281036020840152612318818861222b565b9050828103604084015261232c81876121d6565b60608401959095525050608001529392505050565b60c08152600061235460c0830189612192565b8281036020840152612366818961222b565b9050828103604084015261237a81886121d6565b60608401969096525050608081019290925260a0909101529392505050565b60208101600883106123bb57634e487b7160e01b600052602160045260246000fd5b91905290565b602081526000610c83602083018461225b565b60208082526021908201527f476f7665726e6f723a20696e76616c69642070726f706f73616c206c656e67746040820152600d60fb1b606082015260800190565b60208082526021908201527f476f7665726e6f723a2070726f706f73616c206e6f74207375636365737366756040820152601b60fa1b606082015260800190565b60006101208b8352602060018060a01b038c168185015281604085015261247f8285018c612192565b91508382036060850152612493828b61222b565b915083820360808501528189518084528284019150828160051b850101838c0160005b838110156124e457601f198784030185526124d283835161225b565b948601949250908501906001016124b6565b505086810360a08801526124f8818c6121d6565b94505050505061251360c08401876001600160401b03169052565b6001600160401b03851660e0840152828103610100840152612535818561225b565b9c9b505050505050505050505050565b84815260ff84166020820152826040820152608060608201526000610b59608083018461225b565b604051601f8201601f191681016001600160401b0381118282101715612595576125956126a5565b604052919050565b60006001600160401b038211156125b6576125b66126a5565b5060051b60200190565b600082198211156125d3576125d3612679565b500190565b60006001600160401b038083168185168083038211156125fa576125fa612679565b01949350505050565b60008261262057634e487b7160e01b600052601260045260246000fd5b500490565b600081600019048311821515161561263f5761263f612679565b500290565b600181811c9082168061265857607f821691505b60208210811415611b9457634e487b7160e01b600052602260045260246000fd5b634e487b7160e01b600052601160045260246000fd5b634e487b7160e01b600052602160045260246000fd5b634e487b7160e01b600052604160045260246000fd5b6001600160a01b038116811461068257600080fdfea2646970667358221220726b90b3db4d2c692a77dacdec0069f033c7a636f5227858192454a7c10ceb6464736f6c63430008070033",
    "sourcePath": "c:/Users/Public/Desktop/nft-farm-core/contracts/Governor.sol",
    "compiler": {
        "name": "solc",
        "version": "0.8.7+commit.e28d00a7"
    },
    "functionHashes": {
        "BALLOT_TYPEHASH()": "deaaa7cc",
        "COUNTING_MODE()": "dd4e2ba5",
        "castVote(uint256,uint8)": "56781388",
        "castVoteBySig(uint256,uint8,uint8,bytes32,bytes32)": "3bccf4fd",
        "castVoteWithReason(uint256,uint8,string)": "7b3c71d3",
        "execute(address[],uint256[],bytes[],bytes32)": "2656227d",
        "getVotes(address,uint256)": "eb9019d4",
        "hasVoted(uint256,address)": "43859632",
        "hashProposal(address[],uint256[],bytes[],bytes32)": "c59057e4",
        "name()": "06fdde03",
        "proposalDeadline(uint256)": "c01f9e37",
        "proposalEta(uint256)": "ab58fb8e",
        "proposalSnapshot(uint256)": "2d63f693",
        "proposalVotes(uint256)": "544ffc9c",
        "propose(address[],uint256[],bytes[],string)": "7d5e81e2",
        "queue(address[],uint256[],bytes[],bytes32)": "160cbed7",
        "quorum(uint256)": "f8ce560a",
        "quorumDenominator()": "97c3d334",
        "quorumNumerator()": "a7713a70",
        "state(uint256)": "3e4f49e6",
        "supportsInterface(bytes4)": "01ffc9a7",
        "timelock()": "d33219b4",
        "token()": "fc0c546a",
        "updateQuorumNumerator(uint256)": "06f3f9e6",
        "updateTimelock(address)": "a890c910",
        "version()": "54fd4d50",
        "votingDelay()": "3932abb1",
        "votingPeriod()": "02a251a3"
    },
    "gasEstimates": {
        "creation": {
            "codeDepositCost": "1998000",
            "executionCost": "infinite",
            "totalCost": "infinite"
        },
        "external": {
            "BALLOT_TYPEHASH()": "239",
            "COUNTING_MODE()": "infinite",
            "castVote(uint256,uint8)": "infinite",
            "castVoteBySig(uint256,uint8,uint8,bytes32,bytes32)": "infinite",
            "castVoteWithReason(uint256,uint8,string)": "infinite",
            "execute(address[],uint256[],bytes[],bytes32)": "infinite",
            "getVotes(address,uint256)": "infinite",
            "hasVoted(uint256,address)": "2693",
            "hashProposal(address[],uint256[],bytes[],bytes32)": "infinite",
            "name()": "infinite",
            "proposalDeadline(uint256)": "2673",
            "proposalEta(uint256)": "infinite",
            "proposalSnapshot(uint256)": "2654",
            "proposalVotes(uint256)": "6791",
            "propose(address[],uint256[],bytes[],string)": "infinite",
            "queue(address[],uint256[],bytes[],bytes32)": "infinite",
            "quorum(uint256)": "infinite",
            "quorumDenominator()": "282",
            "quorumNumerator()": "2337",
            "state(uint256)": "infinite",
            "supportsInterface(bytes4)": "infinite",
            "timelock()": "2387",
            "token()": "infinite",
            "updateQuorumNumerator(uint256)": "28146",
            "updateTimelock(address)": "infinite",
            "version()": "infinite",
            "votingDelay()": "238",
            "votingPeriod()": "250"
        },
        "internal": {
            "_cancel(address[] memory,uint256[] memory,bytes memory[] memory,bytes32)": "infinite",
            "_execute(uint256,address[] memory,uint256[] memory,bytes memory[] memory,bytes32)": "infinite",
            "_executor()": "2156"
        }
    }
}